:100000000EC028C027C061C025C024C023C022C0A4
:1000100021C020C050C01EC01DC01CC01BC0112468
:100020001FBECFE5D2E0DEBFCDBF10E0A0E6B0E05E
:10003000EAEDF2E002C005900D92A237B107D9F7C0
:1000400020E0A2E7B0E001C01D92AA38B207E1F7B4
:10005000DDD041C1D5CFA0E0B0E080937A0090938D
:100060007B00A0937C00B0937D0081E080937900B9
:10007000089580917900811103C081E090E0EBDF69
:100080002DE63EE446EC51E460917A0070917B00ED
:1000900080917C0090917D0005D1675C7F4C8F4FF3
:1000A0009F4F60937A0070937B0080937C009093C5
:1000B0007D009F7708951F920F920FB60F92112423
:1000C0000F900FBE0F901F9018951F920F920FB6B2
:1000D0000F9211242F933F934F935F936F937F93CE
:1000E0008F939F93EF93FF93909178009F5F97700A
:1000F00090937800911118C087E080937700209149
:1001000076002F5F237020937600822F63E0C1D0AA
:100110008093750041E050E0BA0102C0660F771F7E
:100120002A95E2F760937400E0917500F0E0E258E0
:10013000FF4F8081981305C080917700867080936F
:1001400077008181981305C0809177008570809336
:1001500077008281981305C0809177008370809327
:100160007700409174006FEF640F50917700862FF5
:1001700090E080959095252F30E082239323880F7F
:10018000991F5623852B97B3907F492B482B47BB4C
:1001900098B3907F892B88BB809163009091640015
:1001A0000196909364008093630080916300909126
:1001B0006400CF97E1F41092640010926300E09124
:1001C0006000F0E0E258FF4F1082809160008F5F86
:1001D00080936000809160008C3010F0109260007D
:1001E000E0916000F0E0E258FF4F87E08083FF91EC
:1001F000EF919F918F917F916F915F914F913F917F
:100200002F910F900FBE0F901F90189584E880BF1C
:100210001CBC1EBC89EF8DBD89B7806489BF82E09C
:100220008ABD8FEF89BD85E083BF89B7806189BFB3
:100230007894B49B20C08091720080FF1CC0809194
:1002400072008E7F80937200809173008F5F809325
:10025000730080917300843010F01092730010923C
:10026000620010926000EEE7F0E0119280E0EA3860
:10027000F807D9F70BC0B49909C08091720080FDCE
:1002800005C080917200816080937200809172003D
:10029000D0CF002480FD060E660F11F08695D1F7B1
:1002A000802D0895EE27FF27AA27BB2708C0A20F9D
:1002B000B31FE41FF51F220F331F441F551F9695D0
:1002C00087957795679598F37040A9F7009799F708
:0A02D000BD01CF010895F894FFCF9F
:1002DA000103050100030802070904050100060BD2
:0202EA000A0008
:00000001FF
