:100000000EC028C027C027C025C024C023C022C0DE
:1000100021C020C01FC01EC01DC01CC01BC0112499
:100020001FBECFE5D2E0DEBFCDBF10E0A0E6B0E05E
:10003000EEE2F3E002C005900D92A037B107D9F7C8
:1000400020E0A0E7B0E001C01D92A338B207E1F7BD
:1000500058D16BC1D5CF1F920F920FB60F921124BA
:100060002F933F934F935F936F937F938F939F93C0
:10007000EF93FF93909176009F5F97709093760037
:10008000911118C087E080937500209174002F5F54
:10009000237020937400822F63E03ED1809373001D
:1000A00041E050E0BA0102C0660F771F2A95E2F7DF
:1000B000609372002091730030E0F901E958FF4F1E
:1000C0008081981305C080917500867080937500BB
:1000D000F901E858FF4F8081981305C080917500A1
:1000E000857080937500F901E758FF4F8081981360
:1000F00005C08091750083708093750040917200F7
:100100006FEF640F50917500862F90E08095909569
:10011000252F30E082239323880F991F5623852BA8
:1001200097B3907F492B482B47BB98B3907F892B7F
:1001300088BB809163008F5F809363009091630020
:1001400080916100981399C01092630080917100B2
:10015000813009F46EC008F455C0823009F08DC0BA
:1001600080917000E0916000F0E0EC59FF4FE08179
:10017000F0E082FF24C08091620091E0980F90939C
:100180006200E958FF4F808380916200883008F454
:1001900074C010926200809160008F5F8093600055
:1001A000809160008C3008F468C08BE08093600020
:1001B00087E080936200809170008B7F20C08091E7
:1001C00062009FEF980F90936200E958FF4F808381
:1001D00080916200811151C087E08093620080911C
:1001E000600081508093600080916000811145C063
:1001F0001092600010926200809170008460809381
:1002000070003BC0E0916000F0E0EC59FF4FE081EE
:10021000F0E080916200E958FF4F80838091620096
:100220008F5F87708093620080916200811125C08A
:1002300012C0809162008F5F8093620080916200A3
:100240008B30A8F010926200E0916000F0E0E95875
:10025000FF4F87E08083809160008F5F8093600014
:10026000809160008C3048F01092600006C0E091F0
:100270006000F0E0E958FF4F1082B49B28C08091E5
:10028000700080FF24C0809170008E7F809370008A
:10029000809171008F5F8093710080917100843034
:1002A00010F01092710010926200809170008460D2
:1002B000809370001092600080E090E0FC01E958AB
:1002C000FF4F108201968C309105C1F70BC0B49995
:1002D00009C08091700080FD05C080917000816030
:1002E00080937000FF91EF919F918F917F916F911B
:1002F0005F914F913F912F910F900FBE0F901F90E4
:10030000189584E880BF1CBC1EBC89EF8DBD89B7E1
:10031000806489BF7894FFCF002480FD060E660FAD
:0E03200011F08695D1F7802D0895F894FFCF47
:10032E00013F0501030802070904050100060B0A37
:00000001FF
