:100000000EC028C027C052C025C024C023C022C0B3
:1000100021C020C020C01EC01DC01CC01BC0112498
:100020001FBECFE5D2E0DEBFCDBF10E0A0E6B0E05E
:10003000E4E3F2E002C005900D92A837B107D9F7CA
:1000400020E0A8E7B0E001C01D92A138B207E1F7B7
:10005000A3D0EEC0D5CF1F920F920FB60F921124EE
:100060008F939F9380917A0090917B00019690935B
:100070007B0080937A0080917A0090917B00469774
:1000800070F010927B0010927A00809179008F5F5F
:100090008C3018F48093790002C0109279009F91FF
:1000A0008F910F900FBE0F901F9018951F920F9277
:1000B0000FB60F9211242F933F934F935F936F933B
:1000C0007F938F939F93EF93FF93909180009F5F17
:1000D0009F7390938000911118C087E080937F00F8
:1000E00020917E002F5F237020937E00822F63E09B
:1000F00096D080937D0041E050E0BA0102C0660FC7
:10010000771F2A95E2F760937C00E0917D00F0E094
:10011000E459FF4F8081981305C080917F0086705D
:1001200080937F008181981305C080917F00857046
:1001300080937F008281981305C080917F00837037
:1001400080937F0040917C006FEF640F50917F009F
:10015000862F90E080959095252F30E08223932381
:10016000880F991F5623852B97B3907F492B482BD7
:1001700047BB98B3907F892B88BBFF91EF919F91EC
:100180008F917F916F915F914F913F912F910F9040
:100190000FBE0F901F90189581E880BF1CBC1EBC3D
:1001A00089EF8DBD89B7806489BF82E08ABD8FEFFA
:1001B00089BD85E083BF89B7806189BF7894ECE60B
:1001C000F0E0119280E0E837F807D9F7E091790084
:1001D000F0E080917A0090917B00459710F480E0E8
:1001E00001C08FE3E459FF4F80838FE19EE40197C4
:1001F000F1F700C0000086B38071909178008917F4
:10020000F1F2809378008823D1F2809179008F5F9A
:1002100080937900833098F210927900D0CF002437
:1002200080FD060E660F11F08695D1F7802D08959A
:04023000F894FFCF70
:10023400000102030405060708090A0B010103076C
:080244000F1F3F1F0F0703010C
:00000001FF
