:100000000EC028C027C027C025C024C023C022C0DE
:1000100021C020C01FC01EC01DC01CC01BC0112499
:100020001FBECFE5D2E0DEBFCDBF10E0A0E6B0E05E
:10003000E4EAF1E002C005900D92AC36B107D9F7C1
:1000400020E0ACE6B0E001C01D92A337B207E1F7B3
:1000500078D0A6C0D5CF1F920F920FB60F92112461
:100060002F933F934F935F936F937F938F939F93C0
:10007000EF93FF93909172009F5F9F739093720034
:10008000911118C087E080937100209170002F5F5C
:10009000237020937000822F63E079D080936F00EB
:1000A00041E050E0BA0102C0660F771F2A95E2F7DF
:1000B00060936E00E0916F00F0E0E05AFF4F8081A6
:1000C000981305C0809171008670809371008181C2
:1000D000981305C0809171008570809371008281B2
:1000E000981305C0809171008370809371004091D6
:1000F0006E006FEF640F50917100862F90E0809535
:100100009095252F30E082239323880F991F562343
:10011000852B97B3907F492B482B47BB98B3907F93
:10012000892B88BBFF91EF919F918F917F916F9168
:100130005F914F913F912F910F900FBE0F901F90A5
:10014000189580B58F6080BD80B5877F80BD82E8BF
:1001500080BF1CBC1EBC89EF8DBD89B7806489BF80
:10016000789480916B00EBE6F0E09291918320E02F
:10017000E036F207D1F7809360008FE798E321E043
:10018000815090402040E1F700C00000EACF0024F9
:1001900080FD060E660F11F08695D1F7802D08952B
:0401A000F894FFCF01
:0C01A400010103070F1F3F1F0F0703019D
:00000001FF
