:100000000EC028C027C061C025C024C023C022C0A4
:1000100021C020C050C01EC01DC01CC01BC0112468
:100020001FBECFE5D2E0DEBFCDBF10E0A0E6B0E05E
:10003000EAE8F3E002C005900D92A237B107D9F7C4
:1000400020E0A2E7B0E001C01D92AA38B207E1F7B4
:1000500047D199C1D5CFA0E0B0E080937A009093CA
:100060007B00A0937C00B0937D0081E080937900B9
:10007000089580917900811103C081E090E0EBDF69
:100080002DE63EE446EC51E460917A0070917B00ED
:1000900080917C0090917D005DD1675C7F4C8F4F9B
:1000A0009F4F60937A0070937B0080937C009093C5
:1000B0007D009F7708951F920F920FB60F92112423
:1000C0000F900FBE0F901F9018951F920F920FB6B2
:1000D0000F9211242F933F934F935F936F937F93CE
:1000E0008F939F93EF93FF93909178009F5F97700A
:1000F00090937800911118C087E080937700209149
:1001000076002F5F237020937600822F63E019D151
:100110008093750041E050E0BA0102C0660F771F7E
:100120002A95E2F760937400E0917500F0E0E258E0
:10013000FF4F8081981305C080917700867080936F
:1001400077008181981305C0809177008570809336
:1001500077008281981305C0809177008370809327
:100160007700409174006FEF640F50917700862FF5
:1001700090E080959095252F30E082239323880F7F
:10018000991F5623852B97B3907F492B482B47BB4C
:1001900098B3907F892B88BB80917300823031F0B7
:1001A00008F464C0833009F08CC060C080916F0097
:1001B0009091700001969093700080936F008091F1
:1001C0006F0090917000CF9709F07BC01092700083
:1001D00010926F0080917200E0916000F0E0ED59A4
:1001E000FF4FE081F0E09091620082FF20C021E0AB
:1001F000290F20936200E258FF4F90839091620094
:10020000983008F45EC010926200909160009F5F89
:1002100090936000909160009C3008F452C09BE085
:100220009093600097E0909362008B7F1CC02FEF4B
:10023000290F20936200E258FF4F90839091620053
:1002400091113FC097E090936200909160009150AF
:100250009093600090916000911133C01092600003
:10026000109262008460809372002BC0E091600065
:1002700080916200F0E0ED59FF4FE081F0E0E2583C
:10028000FF4F8083809162008F5F87708093620050
:1002900080916200811115C0E0916000F0E0ED599D
:1002A000FF4FE081F0E0E258FF4F10828091600044
:1002B0008F5F80936000809160008C3010F010920E
:1002C0006000FF91EF919F918F917F916F915F916E
:1002D0004F913F912F910F900FBE0F901F90189547
:1002E00084E880BF1CBC1EBC89EF8DBD89B78064CB
:1002F00089BF82E08ABD8FEF89BD85E083BF89B762
:10030000806189BF7894B49B12C08091720080FF95
:100310000EC08E7F80937200809173008F5F843057
:1003200018F480937300EFCF10927300ECCFB49960
:10033000EACF8091720080FDE6CF816080937200E9
:10034000E2CF002480FD060E660F11F08695D1F7EE
:10035000802D0895EE27FF27AA27BB2708C0A20FEC
:10036000B31FE41FF51F220F331F441F551F96951F
:1003700087957795679598F37040A9F7009799F757
:0A038000BD01CF010895F894FFCFEE
:10038A00010305030802070904050100060B0A0117
:02039A00000061
:00000001FF
