:100000000EC028C027C061C025C024C023C022C0A4
:1000100021C020C050C01EC01DC01CC01BC0112468
:100020001FBECFE5D2E0DEBFCDBF10E0A0E6B0E05E
:10003000E2E8F3E002C005900D92A037B107D9F7CE
:1000400020E0A0E7B0E001C01D92A838B207E1F7B8
:100050003AD195C1D5CFA0E0B0E0809378009093DD
:100060007900A0937A00B0937B0081E080937700C1
:10007000089580917700811103C081E090E0EBDF6B
:100080002DE63EE446EC51E46091780070917900F1
:1000900080917A0090917B0059D1675C7F4C8F4FA3
:1000A0009F4F609378007093790080937A009093CB
:1000B0007B009F7708951F920F920FB60F92112425
:1000C0000F900FBE0F901F9018951F920F920FB6B2
:1000D0000F9211242F933F934F935F936F937F93CE
:1000E0008F939F93EF93FF93909176009F5F97700C
:1000F00090937600911118C087E08093750020914D
:1001000074002F5F237020937400822F63E015D159
:100110008093730041E050E0BA0102C0660F771F80
:100120002A95E2F760937200E0917300F0E0E458E2
:10013000FF4F8081981305C0809175008670809371
:1001400075008181981305C080917500857080933A
:1001500075008281981305C080917500837080932B
:100160007500409172006FEF640F50917500862FFB
:1001700090E080959095252F30E082239323880F7F
:10018000991F5623852B97B3907F492B482B47BB4C
:1001900098B3907F892B88BB809163008F5F809399
:1001A0006300909163008091610098137DC010926C
:1001B000630080917100882309F455C0823009F0F2
:1001C00073C080917000E0916000F0E0EC59FF4F47
:1001D000E081F0E082FF24C08091620091E0980FFE
:1001E00090936200E458FF4F8083809162008830D2
:1001F00008F45AC010926200809160008F5F809373
:100200006000809160008C3008F44EC08BE08093D9
:10021000600087E080936200809170008B7F20C037
:10022000809162009FEF980F90936200E458FF4F17
:10023000808380916200811137C087E080936200E3
:1002400080916000815080936000809160008111F6
:100250002BC0109260001092620080917000846048
:100260008093700021C0E091600080916200F0E016
:10027000EC59FF4FE081F0E0E458FF4F808380911C
:1002800062008F5F877080936200809162008111AD
:100290000BC0809160008F5F809360008091600050
:1002A0008C3010F010926000FF91EF919F918F9130
:1002B0007F916F915F914F913F912F910F900FBE62
:1002C0000F901F90189584E880BF1CBC1EBC89EF5E
:1002D0008DBD89B7806489BF7894B49B20C080911C
:1002E000700080FF1CC0809170008E7F8093700032
:1002F000809171008F5F80937100809171008430D4
:1003000010F0109271001092620010926000ECE701
:10031000F0E0119280E0E838F807D9F70BC0B49903
:1003200009C08091700080FD05C0809170008160DF
:100330008093700080917000D0CF002480FD060E65
:10034000660F11F08695D1F7802D0895EE27FF27CF
:10035000AA27BB2708C0A20FB31FE41FF51F220F57
:10036000331F441F551F969587957795679598F38A
:100370007040A9F7009799F7BD01CF010895F8944F
:02038000FFCFAD
:10038200013F0501030802070904050100060B0AE3
:00000001FF
