:100000000EC028C027C0F6C025C024C023C022C00F
:1000100021C020C050C01EC01DC01CC01BC0112468
:100020001FBECFE5D2E0DEBFCDBF10E0A0E6B0E05E
:10003000E8EDF3E002C005900D92A037B107D9F7C3
:1000400020E0A0E7B0E001C01D92A938B207E1F7B7
:1000500047D1C0C1D5CFA0E0B0E0809379009093A4
:100060007A00A0937B00B0937C0081E080937800BD
:10007000089580917800811103C081E090E0EBDF6A
:100080002DE63EE446EC51E46091790070917A00EF
:1000900080917B0090917C005DD1675C7F4C8F4F9D
:1000A0009F4F6093790070937A0080937B009093C8
:1000B0007C009F7708951F920F920FB60F92112424
:1000C0002F933F934F935F936F937F938F939F9360
:1000D000AF93BF93EF93FF938091710020916E00D7
:1000E00030916F0082FF03C02F5F3F4F02C021504D
:1000F000310930936F0020936E009091720091301F
:1001000019F0923071F165C08091600020916E000D
:1001100030916F0090E08217930739F4E0917000FE
:10012000F0E0E358FF4F8FE353C0809161002091CE
:100130006E0030916F0090E02817390708F449C02D
:1001400010926F0010926E00E0917000F0E0E358A2
:10015000FF4F10828EDF6AEA7AE015D1609370005B
:1001600038C020916E0030916F0020343105D0F0FE
:100170008B7F80937100E0917000F0E0EE59FF4FAB
:10018000E081F0E0E358FF4F1082809170008150D1
:1001900080937000809170008F3F69F48BE08093B2
:1001A000700009C020916E0030916F00232B19F46C
:1001B000846080937100E091700080916E00909156
:1001C0006F00F0E0EE59FF4FE081F0E0E358FF4FA1
:1001D0008083FF91EF91BF91AF919F918F917F911C
:1001E0006F915F914F913F912F910F900FBE0F90A4
:1001F0001F9018951F920F920FB60F9211242F93F4
:100200003F934F935F936F937F938F939F93EF935E
:10021000FF93909177009F5F9F7390937700911168
:1002200018C087E080937600209175002F5F2370BF
:1002300020937500822F63E084D08093740041E0A6
:1002400050E0BA0102C0660F771F2A95E2F760936B
:100250007300E0917400F0E0E358FF4F8081981341
:1002600005C0809176008670809376008181981316
:1002700005C0809176008570809376008281981306
:1002800005C0809176008370809376004091730062
:100290006FEF640F50917600862F90E080959095D7
:1002A000252F30E082239323880F991F5623852B17
:1002B00097B3907F492B482B47BB98B3907F892BEE
:1002C00088BBFF91EF919F918F917F916F915F918B
:1002D0004F913F912F910F900FBE0F901F90189547
:1002E00081E880BF1CBC1EBC89EF8DBD89B78064CE
:1002F00089BF82E08ABD8FEF89BD85E083BF89B762
:10030000806189BF7894B49B12C08091710080FF96
:100310000EC0909172009F5F909372008E7F8460F8
:1003200080937100933078F310927200ECCFB499FF
:10033000EACF8091710080FDE6CF816080937100EB
:10034000E2CF002480FD060E660F11F08695D1F7EE
:10035000802D0895EE27FF27AA27BB2708C0A20FEC
:10036000B31FE41FF51F220F331F441F551F96951F
:1003700087957795679598F37040A9F7009799F757
:10038000BD01CF01089597FB072E16F4009406D007
:1003900077FD08D00BD007FC05D03EF490958195F1
:1003A0009F4F0895709561957F4F0895AA1BBB1BC1
:1003B00051E107C0AA1FBB1FA617B70710F0A61B65
:1003C000B70B881F991F5A95A9F780959095BC0186
:0803D000CD010895F894FFCF60
:1003D8000304000B0904020A0706030108050100CB
:00000001FF
