:100000000EC028C027C092C025C024C023C022C073
:1000100022C020C042C01EC01DC01CC01BC0112475
:100020001FBECFE5D2E0DEBFCDBF10E0A0E6B0E05E
:10003000EEECF2E002C005900D92A837B107D9F7B7
:1000400020E0A8E7B0E001C01D92A138B207E1F7B7
:10005000E3D03BC1D5CF1F920F920FB60F92112460
:100060005F936F937F938F939F93AF93BF9364B18D
:1000700085B170E0782B81EC9AE013D163506093E6
:100080007900BF91AF919F918F917F916F915F9117
:100090000F900FBE0F901F9018951F920F920FB6E2
:1000A0000F9211242F933F938F939F93EF93FF937E
:1000B00080917A0090917B00019690937B008093D1
:1000C0007A0080917A0090917B000C9760F01092FA
:1000D0007B0010927A009091780084E0892782FD5D
:1000E000826080937800E0917A00F0917B00E05A82
:1000F000FF4FE081F0E020917A0030917B00809109
:10010000790090E08217930710F480E001C08FE33C
:10011000E459FF4F8083FF91EF919F918F913F9121
:100120002F910F900FBE0F901F9018951F920F9256
:100130000FB60F9211242F933F934F935F936F93BA
:100140007F938F939F93EF93FF93909180009F5F96
:100150009F7390938000911118C087E080937F0077
:1001600020917E002F5F237020937E00822F63E01A
:100170008FD080937D0041E050E0BA0102C0660F4D
:10018000771F2A95E2F760937C00E0917D00F0E014
:10019000E459FF4F8081981305C080917F008670DD
:1001A00080937F008181981305C080917F008570C6
:1001B00080937F008281981305C080917F008370B7
:1001C00080937F0040917C006FEF640F50917F001F
:1001D000862F90E080959095252F30E08223932301
:1001E000880F991F5623852B97B3907F492B482B57
:1001F00047BB98B3907F892B88BBFF91EF919F916C
:100200008F917F916F915F914F913F912F910F90BF
:100210000FBE0F901F90189581E880BF1CBC1EBCBC
:1002200089EF8DBD89B7806489BF82E08ABD8FEF79
:1002300089BD85E083BF89B7806189BF8CE087B9BC
:1002400086B1886886B9789480917800B49B10C094
:1002500080FF0EC08E7F80937800809179008F5F41
:100260008C3018F4809379000AC01092790007C08E
:10027000B49905C080FD03C08160809378008091AF
:10028000780081FFE1CF8D7F80937800369ADCCFB4
:10029000002480FD060E660F11F08695D1F7802DA3
:1002A0000895AA1BBB1B51E107C0AA1FBB1FA617BD
:1002B000B70710F0A61BB70B881F991F5A95A9F70F
:0E02C00080959095BC01CD010895F894FFCF74
:1002CE000601090203000407080B0A0501010307D2
:0802DE000F1F3F1F0F07030172
:00000001FF
